{
  "contractName": "MemeToken",
  "abi": [
    {
      "constant": true,
      "inputs": [],
      "name": "promoCreatedCount",
      "outputs": [
        {
          "name": "",
          "type": "uint256"
        }
      ],
      "payable": false,
      "stateMutability": "view",
      "type": "function"
    },
    {
      "constant": true,
      "inputs": [],
      "name": "name",
      "outputs": [
        {
          "name": "",
          "type": "string"
        }
      ],
      "payable": false,
      "stateMutability": "pure",
      "type": "function"
    },
    {
      "constant": false,
      "inputs": [
        {
          "name": "_to",
          "type": "address"
        },
        {
          "name": "_tokenId",
          "type": "uint256"
        }
      ],
      "name": "approve",
      "outputs": [],
      "payable": false,
      "stateMutability": "nonpayable",
      "type": "function"
    },
    {
      "constant": true,
      "inputs": [],
      "name": "ceoAddress",
      "outputs": [
        {
          "name": "",
          "type": "address"
        }
      ],
      "payable": false,
      "stateMutability": "view",
      "type": "function"
    },
    {
      "constant": false,
      "inputs": [
        {
          "name": "_to",
          "type": "address"
        }
      ],
      "name": "payout",
      "outputs": [],
      "payable": false,
      "stateMutability": "nonpayable",
      "type": "function"
    },
    {
      "constant": true,
      "inputs": [],
      "name": "implementsERC721",
      "outputs": [
        {
          "name": "",
          "type": "bool"
        }
      ],
      "payable": false,
      "stateMutability": "pure",
      "type": "function"
    },
    {
      "constant": true,
      "inputs": [],
      "name": "totalSupply",
      "outputs": [
        {
          "name": "total",
          "type": "uint256"
        }
      ],
      "payable": false,
      "stateMutability": "view",
      "type": "function"
    },
    {
      "constant": false,
      "inputs": [
        {
          "name": "_from",
          "type": "address"
        },
        {
          "name": "_to",
          "type": "address"
        },
        {
          "name": "_tokenId",
          "type": "uint256"
        }
      ],
      "name": "transferFrom",
      "outputs": [],
      "payable": false,
      "stateMutability": "nonpayable",
      "type": "function"
    },
    {
      "constant": false,
      "inputs": [
        {
          "name": "_newCEO",
          "type": "address"
        }
      ],
      "name": "setCEO",
      "outputs": [],
      "payable": false,
      "stateMutability": "nonpayable",
      "type": "function"
    },
    {
      "constant": false,
      "inputs": [
        {
          "name": "_newCOO",
          "type": "address"
        }
      ],
      "name": "setCOO",
      "outputs": [],
      "payable": false,
      "stateMutability": "nonpayable",
      "type": "function"
    },
    {
      "constant": true,
      "inputs": [
        {
          "name": "_tokenId",
          "type": "uint256"
        }
      ],
      "name": "getMeme",
      "outputs": [
        {
          "name": "Id",
          "type": "uint256"
        },
        {
          "name": "memeName",
          "type": "string"
        },
        {
          "name": "sellingPrice",
          "type": "uint256"
        },
        {
          "name": "owner",
          "type": "address"
        }
      ],
      "payable": false,
      "stateMutability": "view",
      "type": "function"
    },
    {
      "constant": true,
      "inputs": [
        {
          "name": "_tokenId",
          "type": "uint256"
        }
      ],
      "name": "ownerOf",
      "outputs": [
        {
          "name": "owner",
          "type": "address"
        }
      ],
      "payable": false,
      "stateMutability": "view",
      "type": "function"
    },
    {
      "constant": true,
      "inputs": [
        {
          "name": "_owner",
          "type": "address"
        }
      ],
      "name": "balanceOf",
      "outputs": [
        {
          "name": "balance",
          "type": "uint256"
        }
      ],
      "payable": false,
      "stateMutability": "view",
      "type": "function"
    },
    {
      "constant": true,
      "inputs": [
        {
          "name": "_owner",
          "type": "address"
        }
      ],
      "name": "tokensOfOwner",
      "outputs": [
        {
          "name": "ownerTokens",
          "type": "uint256[]"
        }
      ],
      "payable": false,
      "stateMutability": "view",
      "type": "function"
    },
    {
      "constant": true,
      "inputs": [],
      "name": "symbol",
      "outputs": [
        {
          "name": "",
          "type": "string"
        }
      ],
      "payable": false,
      "stateMutability": "pure",
      "type": "function"
    },
    {
      "constant": false,
      "inputs": [
        {
          "name": "_owner",
          "type": "address"
        },
        {
          "name": "_name",
          "type": "string"
        },
        {
          "name": "_price",
          "type": "uint256"
        }
      ],
      "name": "createPromoMeme",
      "outputs": [],
      "payable": false,
      "stateMutability": "nonpayable",
      "type": "function"
    },
    {
      "constant": true,
      "inputs": [],
      "name": "NAME",
      "outputs": [
        {
          "name": "",
          "type": "string"
        }
      ],
      "payable": false,
      "stateMutability": "view",
      "type": "function"
    },
    {
      "constant": true,
      "inputs": [
        {
          "name": "",
          "type": "uint256"
        }
      ],
      "name": "memeIndexToApproved",
      "outputs": [
        {
          "name": "",
          "type": "address"
        }
      ],
      "payable": false,
      "stateMutability": "view",
      "type": "function"
    },
    {
      "constant": false,
      "inputs": [
        {
          "name": "_to",
          "type": "address"
        },
        {
          "name": "_tokenId",
          "type": "uint256"
        }
      ],
      "name": "transfer",
      "outputs": [],
      "payable": false,
      "stateMutability": "nonpayable",
      "type": "function"
    },
    {
      "constant": true,
      "inputs": [
        {
          "name": "_tokenIds",
          "type": "uint256[]"
        }
      ],
      "name": "getMemeSellingPrices",
      "outputs": [
        {
          "name": "sellingPrices",
          "type": "uint256[]"
        }
      ],
      "payable": false,
      "stateMutability": "view",
      "type": "function"
    },
    {
      "constant": true,
      "inputs": [],
      "name": "cooAddress",
      "outputs": [
        {
          "name": "",
          "type": "address"
        }
      ],
      "payable": false,
      "stateMutability": "view",
      "type": "function"
    },
    {
      "constant": false,
      "inputs": [
        {
          "name": "_tokenId",
          "type": "uint256"
        }
      ],
      "name": "takeOwnership",
      "outputs": [],
      "payable": false,
      "stateMutability": "nonpayable",
      "type": "function"
    },
    {
      "constant": false,
      "inputs": [
        {
          "name": "_name",
          "type": "string"
        }
      ],
      "name": "createContractMeme",
      "outputs": [],
      "payable": false,
      "stateMutability": "nonpayable",
      "type": "function"
    },
    {
      "constant": true,
      "inputs": [
        {
          "name": "_tokenId",
          "type": "uint256"
        }
      ],
      "name": "priceOf",
      "outputs": [
        {
          "name": "price",
          "type": "uint256"
        }
      ],
      "payable": false,
      "stateMutability": "view",
      "type": "function"
    },
    {
      "constant": true,
      "inputs": [
        {
          "name": "",
          "type": "uint256"
        }
      ],
      "name": "memeIndexToOwner",
      "outputs": [
        {
          "name": "",
          "type": "address"
        }
      ],
      "payable": false,
      "stateMutability": "view",
      "type": "function"
    },
    {
      "constant": false,
      "inputs": [
        {
          "name": "_tokenId",
          "type": "uint256"
        }
      ],
      "name": "purchase",
      "outputs": [],
      "payable": true,
      "stateMutability": "payable",
      "type": "function"
    },
    {
      "constant": true,
      "inputs": [],
      "name": "SYMBOL",
      "outputs": [
        {
          "name": "",
          "type": "string"
        }
      ],
      "payable": false,
      "stateMutability": "view",
      "type": "function"
    },
    {
      "inputs": [],
      "payable": false,
      "stateMutability": "nonpayable",
      "type": "constructor"
    },
    {
      "anonymous": false,
      "inputs": [
        {
          "indexed": false,
          "name": "tokenId",
          "type": "uint256"
        },
        {
          "indexed": false,
          "name": "name",
          "type": "string"
        },
        {
          "indexed": false,
          "name": "owner",
          "type": "address"
        }
      ],
      "name": "Birth",
      "type": "event"
    },
    {
      "anonymous": false,
      "inputs": [
        {
          "indexed": false,
          "name": "tokenId",
          "type": "uint256"
        },
        {
          "indexed": false,
          "name": "oldPrice",
          "type": "uint256"
        },
        {
          "indexed": false,
          "name": "newPrice",
          "type": "uint256"
        },
        {
          "indexed": false,
          "name": "prevOwner",
          "type": "address"
        },
        {
          "indexed": false,
          "name": "winner",
          "type": "address"
        },
        {
          "indexed": false,
          "name": "name",
          "type": "string"
        }
      ],
      "name": "TokenSold",
      "type": "event"
    },
    {
      "anonymous": false,
      "inputs": [
        {
          "indexed": false,
          "name": "from",
          "type": "address"
        },
        {
          "indexed": false,
          "name": "to",
          "type": "address"
        },
        {
          "indexed": false,
          "name": "tokenId",
          "type": "uint256"
        }
      ],
      "name": "Transfer",
      "type": "event"
    },
    {
      "anonymous": false,
      "inputs": [
        {
          "indexed": true,
          "name": "owner",
          "type": "address"
        },
        {
          "indexed": true,
          "name": "approved",
          "type": "address"
        },
        {
          "indexed": false,
          "name": "tokenId",
          "type": "uint256"
        }
      ],
      "name": "Approval",
      "type": "event"
    }
  ],
  "bytecode": "0x606060405266038d7ea4c6800060005566be78bd4c57d0006001556707d72165f25ed000600255341561003157600080fd5b33600760006101000a81548173ffffffffffffffffffffffffffffffffffffffff021916908373ffffffffffffffffffffffffffffffffffffffff16021790555033600860006101000a81548173ffffffffffffffffffffffffffffffffffffffff021916908373ffffffffffffffffffffffffffffffffffffffff1602179055506121fe806100c26000396000f30060606040526004361061015f576000357c0100000000000000000000000000000000000000000000000000000000900463ffffffff16806305e455461461016457806306fdde031461018d578063095ea7b31461021b5780630a0f81681461025d5780630b7e9c44146102b25780631051db34146102eb57806318160ddd1461031857806323b872dd1461034157806327d7874c146103a25780632ba73c15146103db5780633dea6b9a146104145780636352211e146104f157806370a08231146105545780638462151c146105a157806395d89b411461062f5780639e5adf8e146106bd578063a3f4df7e14610742578063a7071d01146107d0578063a9059cbb14610833578063aeb8184114610875578063b047fb5014610924578063b2e6ceeb14610979578063b67efa5b1461099c578063b9186d7d146109f9578063deffbb2014610a30578063efef39a114610a93578063f76f8d7814610aab575b600080fd5b341561016f57600080fd5b610177610b39565b6040518082815260200191505060405180910390f35b341561019857600080fd5b6101a0610b3f565b6040518080602001828103825283818151815260200191508051906020019080838360005b838110156101e05780820151818401526020810190506101c5565b50505050905090810190601f16801561020d5780820380516001836020036101000a031916815260200191505b509250505060405180910390f35b341561022657600080fd5b61025b600480803573ffffffffffffffffffffffffffffffffffffffff16906020019091908035906020019091905050610b82565b005b341561026857600080fd5b610270610c52565b604051808273ffffffffffffffffffffffffffffffffffffffff1673ffffffffffffffffffffffffffffffffffffffff16815260200191505060405180910390f35b34156102bd57600080fd5b6102e9600480803573ffffffffffffffffffffffffffffffffffffffff16906020019091905050610c78565b005b34156102f657600080fd5b6102fe610d38565b604051808215151515815260200191505060405180910390f35b341561032357600080fd5b61032b610d41565b6040518082815260200191505060405180910390f35b341561034c57600080fd5b6103a0600480803573ffffffffffffffffffffffffffffffffffffffff1690602001909190803573ffffffffffffffffffffffffffffffffffffffff16906020019091908035906020019091905050610d4e565b005b34156103ad57600080fd5b6103d9600480803573ffffffffffffffffffffffffffffffffffffffff16906020019091905050610d9c565b005b34156103e657600080fd5b610412600480803573ffffffffffffffffffffffffffffffffffffffff16906020019091905050610e78565b005b341561041f57600080fd5b6104356004808035906020019091905050610f54565b60405180858152602001806020018481526020018373ffffffffffffffffffffffffffffffffffffffff1673ffffffffffffffffffffffffffffffffffffffff168152602001828103825285818151815260200191508051906020019080838360005b838110156104b3578082015181840152602081019050610498565b50505050905090810190601f1680156104e05780820380516001836020036101000a031916815260200191505b509550505050505060405180910390f35b34156104fc57600080fd5b6105126004808035906020019091905050611075565b604051808273ffffffffffffffffffffffffffffffffffffffff1673ffffffffffffffffffffffffffffffffffffffff16815260200191505060405180910390f35b341561055f57600080fd5b61058b600480803573ffffffffffffffffffffffffffffffffffffffff169060200190919050506110ee565b6040518082815260200191505060405180910390f35b34156105ac57600080fd5b6105d8600480803573ffffffffffffffffffffffffffffffffffffffff16906020019091905050611137565b6040518080602001828103825283818151815260200191508051906020019060200280838360005b8381101561061b578082015181840152602081019050610600565b505050509050019250505060405180910390f35b341561063a57600080fd5b61064261126e565b6040518080602001828103825283818151815260200191508051906020019080838360005b83811015610682578082015181840152602081019050610667565b50505050905090810190601f1680156106af5780820380516001836020036101000a031916815260200191505b509250505060405180910390f35b34156106c857600080fd5b610740600480803573ffffffffffffffffffffffffffffffffffffffff1690602001909190803590602001908201803590602001908080601f016020809104026020016040519081016040528093929190818152602001838380828437820191505050505050919080359060200190919050506112b1565b005b341561074d57600080fd5b6107556113b2565b6040518080602001828103825283818151815260200191508051906020019080838360005b8381101561079557808201518184015260208101905061077a565b50505050905090810190601f1680156107c25780820380516001836020036101000a031916815260200191505b509250505060405180910390f35b34156107db57600080fd5b6107f160048080359060200190919050506113eb565b604051808273ffffffffffffffffffffffffffffffffffffffff1673ffffffffffffffffffffffffffffffffffffffff16815260200191505060405180910390f35b341561083e57600080fd5b610873600480803573ffffffffffffffffffffffffffffffffffffffff1690602001909190803590602001909190505061141e565b005b341561088057600080fd5b6108cd600480803590602001908201803590602001908080602002602001604051908101604052809392919081815260200183836020028082843782019150505050505091905050611456565b6040518080602001828103825283818151815260200191508051906020019060200280838360005b838110156109105780820151818401526020810190506108f5565b505050509050019250505060405180910390f35b341561092f57600080fd5b6109376114ea565b604051808273ffffffffffffffffffffffffffffffffffffffff1673ffffffffffffffffffffffffffffffffffffffff16815260200191505060405180910390f35b341561098457600080fd5b61099a6004808035906020019091905050611510565b005b34156109a757600080fd5b6109f7600480803590602001908201803590602001908080601f01602080910402602001604051908101604052809392919081815260200183838082843782019150505050505091905050611585565b005b3415610a0457600080fd5b610a1a60048080359060200190919050506115f1565b6040518082815260200191505060405180910390f35b3415610a3b57600080fd5b610a51600480803590602001909190505061160e565b604051808273ffffffffffffffffffffffffffffffffffffffff1673ffffffffffffffffffffffffffffffffffffffff16815260200191505060405180910390f35b610aa96004808035906020019091905050611641565b005b3415610ab657600080fd5b610abe6119ed565b6040518080602001828103825283818151815260200191508051906020019080838360005b83811015610afe578082015181840152602081019050610ae3565b50505050905090810190601f168015610b2b5780820380516001836020036101000a031916815260200191505b509250505060405180910390f35b60095481565b610b47612034565b6040805190810160405280600b81526020017f43727970746f4d656d6573000000000000000000000000000000000000000000815250905090565b610b8c3382611a26565b1515610b9757600080fd5b816005600083815260200190815260200160002060006101000a81548173ffffffffffffffffffffffffffffffffffffffff021916908373ffffffffffffffffffffffffffffffffffffffff1602179055508173ffffffffffffffffffffffffffffffffffffffff163373ffffffffffffffffffffffffffffffffffffffff167f8c5be1e5ebec7d5bd14f71427d1e84f3dd0314c0f7b2291e5b200ac8c7c3b925836040518082815260200191505060405180910390a35050565b600760009054906101000a900473ffffffffffffffffffffffffffffffffffffffff1681565b600760009054906101000a900473ffffffffffffffffffffffffffffffffffffffff1673ffffffffffffffffffffffffffffffffffffffff163373ffffffffffffffffffffffffffffffffffffffff161480610d215750600860009054906101000a900473ffffffffffffffffffffffffffffffffffffffff1673ffffffffffffffffffffffffffffffffffffffff163373ffffffffffffffffffffffffffffffffffffffff16145b1515610d2c57600080fd5b610d3581611a92565b50565b60006001905090565b6000600a80549050905090565b610d588382611a26565b1515610d6357600080fd5b610d6d8282611ba0565b1515610d7857600080fd5b610d8182611c0c565b1515610d8c57600080fd5b610d97838383611c45565b505050565b600760009054906101000a900473ffffffffffffffffffffffffffffffffffffffff1673ffffffffffffffffffffffffffffffffffffffff163373ffffffffffffffffffffffffffffffffffffffff16141515610df857600080fd5b600073ffffffffffffffffffffffffffffffffffffffff168173ffffffffffffffffffffffffffffffffffffffff1614151515610e3457600080fd5b80600760006101000a81548173ffffffffffffffffffffffffffffffffffffffff021916908373ffffffffffffffffffffffffffffffffffffffff16021790555050565b600760009054906101000a900473ffffffffffffffffffffffffffffffffffffffff1673ffffffffffffffffffffffffffffffffffffffff163373ffffffffffffffffffffffffffffffffffffffff16141515610ed457600080fd5b600073ffffffffffffffffffffffffffffffffffffffff168173ffffffffffffffffffffffffffffffffffffffff1614151515610f1057600080fd5b80600860006101000a81548173ffffffffffffffffffffffffffffffffffffffff021916908373ffffffffffffffffffffffffffffffffffffffff16021790555050565b6000610f5e612034565b6000806000600a86815481101515610f7257fe5b90600052602060002090019050859450806000018054600181600116156101000203166002900480601f01602080910402602001604051908101604052809291908181526020018280546001816001161561010002031660029004801561101a5780601f10610fef5761010080835404028352916020019161101a565b820191906000526020600020905b815481529060010190602001808311610ffd57829003601f168201915b50505050509350600660008781526020019081526020016000205492506003600087815260200190815260200160002060009054906101000a900473ffffffffffffffffffffffffffffffffffffffff169150509193509193565b60006003600083815260200190815260200160002060009054906101000a900473ffffffffffffffffffffffffffffffffffffffff169050600073ffffffffffffffffffffffffffffffffffffffff168173ffffffffffffffffffffffffffffffffffffffff16141515156110e957600080fd5b919050565b6000600460008373ffffffffffffffffffffffffffffffffffffffff1673ffffffffffffffffffffffffffffffffffffffff168152602001908152602001600020549050919050565b61113f612048565b6000611149612048565b6000806000611157876110ee565b945060008514156111895760006040518059106111715750595b90808252806020026020018201604052509550611264565b846040518059106111975750595b908082528060200260200182016040525093506111b2610d41565b925060009150600090505b8281111515611260578673ffffffffffffffffffffffffffffffffffffffff166003600083815260200190815260200160002060009054906101000a900473ffffffffffffffffffffffffffffffffffffffff1673ffffffffffffffffffffffffffffffffffffffff1614156112535780848381518110151561123c57fe5b906020019060200201818152505081806001019250505b80806001019150506111bd565b8395505b5050505050919050565b611276612034565b6040805190810160405280600981526020017f4d656d65546f6b656e0000000000000000000000000000000000000000000000815250905090565b6000600860009054906101000a900473ffffffffffffffffffffffffffffffffffffffff1673ffffffffffffffffffffffffffffffffffffffff163373ffffffffffffffffffffffffffffffffffffffff1614151561130f57600080fd5b61138860095410151561132157600080fd5b839050600073ffffffffffffffffffffffffffffffffffffffff168173ffffffffffffffffffffffffffffffffffffffff16141561137f57600860009054906101000a900473ffffffffffffffffffffffffffffffffffffffff1690505b60008211151561138f5760005491505b6009600081548092919060010191905055506113ac838284611e47565b50505050565b6040805190810160405280600b81526020017f43727970746f4d656d657300000000000000000000000000000000000000000081525081565b60056020528060005260406000206000915054906101000a900473ffffffffffffffffffffffffffffffffffffffff1681565b6114283382611a26565b151561143357600080fd5b61143c82611c0c565b151561144757600080fd5b611452338383611c45565b5050565b61145e612048565b6000825160405180591061146f5750595b90808252806020026020018201604052509150600090505b82518110156114e4576006600084838151811015156114a257fe5b9060200190602002015181526020019081526020016000205482828151811015156114c957fe5b90602001906020020181815250508080600101915050611487565b50919050565b600860009054906101000a900473ffffffffffffffffffffffffffffffffffffffff1681565b6000803391506003600084815260200190815260200160002060009054906101000a900473ffffffffffffffffffffffffffffffffffffffff16905061155582611c0c565b151561156057600080fd5b61156a8284611ba0565b151561157557600080fd5b611580818385611c45565b505050565b600860009054906101000a900473ffffffffffffffffffffffffffffffffffffffff1673ffffffffffffffffffffffffffffffffffffffff163373ffffffffffffffffffffffffffffffffffffffff161415156115e157600080fd5b6115ee8130600054611e47565b50565b600060066000838152602001908152602001600020549050919050565b60036020528060005260406000206000915054906101000a900473ffffffffffffffffffffffffffffffffffffffff1681565b60008060008060006003600087815260200190815260200160002060009054906101000a900473ffffffffffffffffffffffffffffffffffffffff169450339350600660008781526020019081526020016000205492508373ffffffffffffffffffffffffffffffffffffffff168573ffffffffffffffffffffffffffffffffffffffff16141515156116d357600080fd5b6116dc84611c0c565b15156116e757600080fd5b8234101515156116f657600080fd5b61170b61170484605e611fc5565b6064612000565b9150611717348461201b565b9050600154831015611754576117386117318460c8611fc5565b605e612000565b60066000888152602001908152602001600020819055506117bd565b60025483101561178f5761177361176c846078611fc5565b605e612000565b60066000888152602001908152602001600020819055506117bc565b6117a461179d846073611fc5565b605e612000565b60066000888152602001908152602001600020819055505b5b6117c8858588611c45565b3073ffffffffffffffffffffffffffffffffffffffff168573ffffffffffffffffffffffffffffffffffffffff1614151561183e578473ffffffffffffffffffffffffffffffffffffffff166108fc839081150290604051600060405180830381858888f19350505050151561183d57600080fd5b5b7e8201e7bcbf010c2c07de59d6e97cb7e3cf67a46125c49cbc89b9d2cde1f48f8684600660008a8152602001908152602001600020548888600a8c81548110151561188557fe5b9060005260206000209001600001604051808781526020018681526020018581526020018473ffffffffffffffffffffffffffffffffffffffff1673ffffffffffffffffffffffffffffffffffffffff1681526020018373ffffffffffffffffffffffffffffffffffffffff1673ffffffffffffffffffffffffffffffffffffffff168152602001806020018281038252838181546001816001161561010002031660029004815260200191508054600181600116156101000203166002900480156119925780601f1061196757610100808354040283529160200191611992565b820191906000526020600020905b81548152906001019060200180831161197557829003601f168201915b505097505050505050505060405180910390a13373ffffffffffffffffffffffffffffffffffffffff166108fc829081150290604051600060405180830381858888f1935050505015156119e557600080fd5b505050505050565b6040805190810160405280600981526020017f4d656d65546f6b656e000000000000000000000000000000000000000000000081525081565b60006003600083815260200190815260200160002060009054906101000a900473ffffffffffffffffffffffffffffffffffffffff1673ffffffffffffffffffffffffffffffffffffffff168373ffffffffffffffffffffffffffffffffffffffff1614905092915050565b600073ffffffffffffffffffffffffffffffffffffffff168173ffffffffffffffffffffffffffffffffffffffff161415611b4557600760009054906101000a900473ffffffffffffffffffffffffffffffffffffffff1673ffffffffffffffffffffffffffffffffffffffff166108fc3073ffffffffffffffffffffffffffffffffffffffff16319081150290604051600060405180830381858888f193505050501515611b4057600080fd5b611b9d565b8073ffffffffffffffffffffffffffffffffffffffff166108fc3073ffffffffffffffffffffffffffffffffffffffff16319081150290604051600060405180830381858888f193505050501515611b9c57600080fd5b5b50565b60008273ffffffffffffffffffffffffffffffffffffffff166005600084815260200190815260200160002060009054906101000a900473ffffffffffffffffffffffffffffffffffffffff1673ffffffffffffffffffffffffffffffffffffffff1614905092915050565b60008073ffffffffffffffffffffffffffffffffffffffff168273ffffffffffffffffffffffffffffffffffffffff1614159050919050565b600460008373ffffffffffffffffffffffffffffffffffffffff1673ffffffffffffffffffffffffffffffffffffffff16815260200190815260200160002060008154809291906001019190505550816003600083815260200190815260200160002060006101000a81548173ffffffffffffffffffffffffffffffffffffffff021916908373ffffffffffffffffffffffffffffffffffffffff160217905550600073ffffffffffffffffffffffffffffffffffffffff168373ffffffffffffffffffffffffffffffffffffffff16141515611da357600460008473ffffffffffffffffffffffffffffffffffffffff1673ffffffffffffffffffffffffffffffffffffffff16815260200190815260200160002060008154809291906001900391905055506005600082815260200190815260200160002060006101000a81549073ffffffffffffffffffffffffffffffffffffffff02191690555b7fddf252ad1be2c89b69c2b068fc378daa952ba7f163c4a11628f55a4df523b3ef838383604051808473ffffffffffffffffffffffffffffffffffffffff1673ffffffffffffffffffffffffffffffffffffffff1681526020018373ffffffffffffffffffffffffffffffffffffffff1673ffffffffffffffffffffffffffffffffffffffff168152602001828152602001935050505060405180910390a1505050565b611e4f61205c565b60006020604051908101604052808681525091506001600a8054806001018281611e799190612076565b916000526020600020900160008590919091506000820151816000019080519060200190611ea89291906120a2565b5050500390508063ffffffff1681141515611ec257600080fd5b7fb3b0cf861f168bcdb275c69da97b2543631552ba562628aa3c7317d4a6089ef281868660405180848152602001806020018373ffffffffffffffffffffffffffffffffffffffff1673ffffffffffffffffffffffffffffffffffffffff168152602001828103825284818151815260200191508051906020019080838360005b83811015611f5e578082015181840152602081019050611f43565b50505050905090810190601f168015611f8b5780820380516001836020036101000a031916815260200191505b5094505050505060405180910390a1826006600083815260200190815260200160002081905550611fbe60008583611c45565b5050505050565b6000806000841415611fda5760009150611ff9565b8284029050828482811515611feb57fe5b04141515611ff557fe5b8091505b5092915050565b600080828481151561200e57fe5b0490508091505092915050565b600082821115151561202957fe5b818303905092915050565b602060405190810160405280600081525090565b602060405190810160405280600081525090565b602060405190810160405280612070612122565b81525090565b81548183558181151161209d5781836000526020600020918201910161209c9190612136565b5b505050565b828054600181600116156101000203166002900490600052602060002090601f016020900481019282601f106120e357805160ff1916838001178555612111565b82800160010185558215612111579182015b828111156121105782518255916020019190600101906120f5565b5b50905061211e9190612165565b5090565b602060405190810160405280600081525090565b61216291905b8082111561215e5760008082016000612155919061218a565b5060010161213c565b5090565b90565b61218791905b8082111561218357600081600090555060010161216b565b5090565b90565b50805460018160011615610100020316600290046000825580601f106121b057506121cf565b601f0160209004906000526020600020908101906121ce9190612165565b5b505600a165627a7a72305820fa7ed75f9a1a5b5c47ef488c7e5ce1fe59802e65825890a93a3d60c76a489b270029",
  "source": "pragma solidity ^0.4.18; // solhint-disable-line\n\n\n\n/// @title Interface for contracts conforming to ERC-721: Non-Fungible Tokens\n/// @author Dieter Shirley <dete@axiomzen.co> (https://github.com/dete)\ncontract ERC721 {\n  // Required methods\n  function approve(address _to, uint256 _tokenId) public;\n  function balanceOf(address _owner) public view returns (uint256 balance);\n  function implementsERC721() public pure returns (bool);\n  function ownerOf(uint256 _tokenId) public view returns (address addr);\n  function takeOwnership(uint256 _tokenId) public;\n  function totalSupply() public view returns (uint256 total);\n  function transferFrom(address _from, address _to, uint256 _tokenId) public;\n  function transfer(address _to, uint256 _tokenId) public;\n\n  event Transfer(address indexed from, address indexed to, uint256 tokenId);\n  event Approval(address indexed owner, address indexed approved, uint256 tokenId);\n\n  // Optional\n  // function name() public view returns (string name);\n  // function symbol() public view returns (string symbol);\n  // function tokenOfOwnerByIndex(address _owner, uint256 _index) external view returns (uint256 tokenId);\n  // function tokenMetadata(uint256 _tokenId) public view returns (string infoUrl);\n}\n\n\ncontract MemeToken is ERC721 {\n\n  /*** EVENTS ***/\n\n  /// @dev The Birth event is fired whenever a new meme comes into existence.\n  event Birth(uint256 tokenId, string name, address owner);\n\n  /// @dev The TokenSold event is fired whenever a token is sold.\n  event TokenSold(uint256 tokenId, uint256 oldPrice, uint256 newPrice, address prevOwner, address winner, string name);\n\n  /// @dev Transfer event as defined in current draft of ERC721. \n  ///  ownership is assigned, including births.\n  event Transfer(address from, address to, uint256 tokenId);\n\n  /*** CONSTANTS ***/\n\n  /// @notice Name and symbol of the non fungible token, as defined in ERC721.\n  string public constant NAME = \"CryptoMemes\"; // solhint-disable-line\n  string public constant SYMBOL = \"MemeToken\"; // solhint-disable-line\n\n  uint256 private startingPrice = 0.001 ether;\n  uint256 private constant PROMO_CREATION_LIMIT = 5000;\n  uint256 private firstStepLimit =  0.053613 ether;\n  uint256 private secondStepLimit = 0.564957 ether;\n\n  /*** STORAGE ***/\n\n  /// @dev A mapping from meme IDs to the address that owns them. All memes have\n  ///  some valid owner address.\n  mapping (uint256 => address) public memeIndexToOwner;\n\n  // @dev A mapping from owner address to count of tokens that address owns.\n  //  Used internally inside balanceOf() to resolve ownership count.\n  mapping (address => uint256) private ownershipTokenCount;\n\n  /// @dev A mapping from MemeIDs to an address that has been approved to call\n  ///  transferFrom(). Each Meme can only have one approved address for transfer\n  ///  at any time. A zero value means no approval is outstanding.\n  mapping (uint256 => address) public memeIndexToApproved;\n\n  // @dev A mapping from MemeIDs to the price of the token.\n  mapping (uint256 => uint256) private memeIndexToPrice;\n\n  // The addresses of the accounts (or contracts) that can execute actions within each roles.\n  address public ceoAddress;\n  address public cooAddress;\n\n  uint256 public promoCreatedCount;\n\n  /*** DATATYPES ***/\n  struct Meme {\n    string name;\n  }\n\n  struct Memes {\n    uint256 Id;\n    string memeName;\n    uint256 sellingPrice;\n    address owner;\n  }\n\n  Meme[] private memes;\n\n  /*** ACCESS MODIFIERS ***/\n  /// @dev Access modifier for CEO-only functionality\n  modifier onlyCEO() {\n    require(msg.sender == ceoAddress);\n    _;\n  }\n\n  /// @dev Access modifier for COO-only functionality\n  modifier onlyCOO() {\n    require(msg.sender == cooAddress);\n    _;\n  }\n\n  /// Access modifier for contract owner only functionality\n  modifier onlyCLevel() {\n    require(\n      msg.sender == ceoAddress ||\n      msg.sender == cooAddress\n    );\n    _;\n  }\n\n  /*** CONSTRUCTOR ***/\n  function MemeToken() public {\n    ceoAddress = msg.sender;\n    cooAddress = msg.sender;\n  }\n\n  /*** PUBLIC FUNCTIONS ***/\n  /// @notice Grant another address the right to transfer token via takeOwnership() and transferFrom().\n  /// @param _to The address to be granted transfer approval. Pass address(0) to\n  ///  clear all approvals.\n  /// @param _tokenId The ID of the Token that can be transferred if this call succeeds.\n  /// @dev Required for ERC-721 compliance.\n  function approve(\n    address _to,\n    uint256 _tokenId\n  ) public {\n    // Caller must own token.\n    require(_owns(msg.sender, _tokenId));\n\n    memeIndexToApproved[_tokenId] = _to;\n\n    Approval(msg.sender, _to, _tokenId);\n  }\n\n  /// For querying balance of a particular account\n  /// @param _owner The address for balance query\n  /// @dev Required for ERC-721 compliance.\n  function balanceOf(address _owner) public view returns (uint256 balance) {\n    return ownershipTokenCount[_owner];\n  }\n\n  /// @dev Creates a new promo Meme with the given name, with given _price and assignes it to an address.\n  function createPromoMeme(address _owner, string _name, uint256 _price) public onlyCOO {\n    require(promoCreatedCount < PROMO_CREATION_LIMIT);\n\n    address memeOwner = _owner;\n    if (memeOwner == address(0)) {\n      memeOwner = cooAddress;\n    }\n\n    if (_price <= 0) {\n      _price = startingPrice;\n    }\n\n    promoCreatedCount++;\n    _createMeme(_name, memeOwner, _price);\n  }\n\n  /// @dev Creates a new Meme with the given name.\n  function createContractMeme(string _name) public onlyCOO {\n    _createMeme(_name, address(this), startingPrice);\n  }\n\n  /// @notice Returns all the relevant information about a specific meme.\n  /// @param _tokenId The tokenId of the meme of interest.\n  function getMeme(uint256 _tokenId) public view returns (\n    uint256 Id,\n    string memeName,\n    uint256 sellingPrice,\n    address owner\n  ) {\n    Meme storage meme = memes[_tokenId];\n    Id = _tokenId;\n    memeName = meme.name;\n    sellingPrice = memeIndexToPrice[_tokenId];\n    owner = memeIndexToOwner[_tokenId];\n  }\n\n  /// @notice Returns all the relevant information about a specific meme.\n  /// @param _tokenIds The tokenId of the meme of interest.\n  function getMemeSellingPrices(uint256[] _tokenIds) public view returns (\n    uint256[] sellingPrices\n  ) {\n    sellingPrices = new uint256[](_tokenIds.length);\n    for(uint i=0;i<_tokenIds.length;i++){\n      sellingPrices[i]=memeIndexToPrice[_tokenIds[i]];\n    }\n\n  }\n\n  function implementsERC721() public pure returns (bool) {\n    return true;\n  }\n\n  /// @dev Required for ERC-721 compliance.\n  function name() public pure returns (string) {\n    return NAME;\n  }\n\n  /// For querying owner of token\n  /// @param _tokenId The tokenID for owner inquiry\n  /// @dev Required for ERC-721 compliance.\n  function ownerOf(uint256 _tokenId)\n    public\n    view\n    returns (address owner)\n  {\n    owner = memeIndexToOwner[_tokenId];\n    require(owner != address(0));\n  }\n\n  function payout(address _to) public onlyCLevel {\n    _payout(_to);\n  }\n\n  // Allows someone to send ether and obtain the token\n  function purchase(uint256 _tokenId) public payable {\n    address oldOwner = memeIndexToOwner[_tokenId];\n    address newOwner = msg.sender;\n\n    uint256 sellingPrice = memeIndexToPrice[_tokenId];\n\n    // Making sure token owner is not sending to self\n    require(oldOwner != newOwner);\n\n    // Safety check to prevent against an unexpected 0x0 default.\n    require(_addressNotNull(newOwner));\n\n    // Making sure sent amount is greater than or equal to the sellingPrice\n    require(msg.value >= sellingPrice);\n\n    uint256 payment = uint256(SafeMath.div(SafeMath.mul(sellingPrice, 94), 100));\n    uint256 purchaseExcess = SafeMath.sub(msg.value, sellingPrice);\n\n    // Update prices\n    if (sellingPrice < firstStepLimit) {\n      // first stage\n      memeIndexToPrice[_tokenId] = SafeMath.div(SafeMath.mul(sellingPrice, 200), 94);\n    } else if (sellingPrice < secondStepLimit) {\n      // second stage\n      memeIndexToPrice[_tokenId] = SafeMath.div(SafeMath.mul(sellingPrice, 120), 94);\n    } else {\n      // third stage\n      memeIndexToPrice[_tokenId] = SafeMath.div(SafeMath.mul(sellingPrice, 115), 94);\n    }\n\n    _transfer(oldOwner, newOwner, _tokenId);\n\n    // Pay previous tokenOwner if owner is not contract\n    if (oldOwner != address(this)) {\n      oldOwner.transfer(payment); //(1-0.06)\n    }\n\n    TokenSold(_tokenId, sellingPrice, memeIndexToPrice[_tokenId], oldOwner, newOwner, memes[_tokenId].name);\n\n    msg.sender.transfer(purchaseExcess);\n  }\n\n  function priceOf(uint256 _tokenId) public view returns (uint256 price) {\n    return memeIndexToPrice[_tokenId];\n  }\n\n  /// @dev Assigns a new address to act as the CEO. Only available to the current CEO.\n  /// @param _newCEO The address of the new CEO\n  function setCEO(address _newCEO) public onlyCEO {\n    require(_newCEO != address(0));\n\n    ceoAddress = _newCEO;\n  }\n\n  /// @dev Assigns a new address to act as the COO. Only available to the current COO.\n  /// @param _newCOO The address of the new COO\n  function setCOO(address _newCOO) public onlyCEO {\n    require(_newCOO != address(0));\n\n    cooAddress = _newCOO;\n  }\n\n  /// @dev Required for ERC-721 compliance.\n  function symbol() public pure returns (string) {\n    return SYMBOL;\n  }\n\n  /// @notice Allow pre-approved user to take ownership of a token\n  /// @param _tokenId The ID of the Token that can be transferred if this call succeeds.\n  /// @dev Required for ERC-721 compliance.\n  function takeOwnership(uint256 _tokenId) public {\n    address newOwner = msg.sender;\n    address oldOwner = memeIndexToOwner[_tokenId];\n\n    // Safety check to prevent against an unexpected 0x0 default.\n    require(_addressNotNull(newOwner));\n\n    // Making sure transfer is approved\n    require(_approved(newOwner, _tokenId));\n\n    _transfer(oldOwner, newOwner, _tokenId);\n  }\n\n  /// @param _owner The owner whose celebrity tokens we are interested in.\n  /// @dev This method MUST NEVER be called by smart contract code. First, it's fairly\n  ///  expensive (it walks the entire Memes array looking for memes belonging to owner),\n  ///  but it also returns a dynamic array, which is only supported for web3 calls, and\n  ///  not contract-to-contract calls.\n  function tokensOfOwner(address _owner) public view returns(uint256[] ownerTokens) {\n    uint256 tokenCount = balanceOf(_owner);\n    if (tokenCount == 0) {\n        // Return an empty array\n      return new uint256[](0);\n    } else {\n      uint256[] memory result = new uint256[](tokenCount);\n      uint256 totalMemes = totalSupply();\n      uint256 resultIndex = 0;\n\n      uint256 memeId;\n      for (memeId = 0; memeId <= totalMemes; memeId++) {\n        if (memeIndexToOwner[memeId] == _owner) {\n          result[resultIndex] = memeId;\n          resultIndex++;\n        }\n      }\n      return result;\n    }\n  }\n\n  /// For querying totalSupply of token\n  /// @dev Required for ERC-721 compliance.\n  function totalSupply() public view returns (uint256 total) {\n    return memes.length;\n  }\n\n  /// Owner initates the transfer of the token to another account\n  /// @param _to The address for the token to be transferred to.\n  /// @param _tokenId The ID of the Token that can be transferred if this call succeeds.\n  /// @dev Required for ERC-721 compliance.\n  function transfer(\n    address _to,\n    uint256 _tokenId\n  ) public {\n    require(_owns(msg.sender, _tokenId));\n    require(_addressNotNull(_to));\n\n    _transfer(msg.sender, _to, _tokenId);\n  }\n\n  /// Third-party initiates transfer of token from address _from to address _to\n  /// @param _from The address for the token to be transferred from.\n  /// @param _to The address for the token to be transferred to.\n  /// @param _tokenId The ID of the Token that can be transferred if this call succeeds.\n  /// @dev Required for ERC-721 compliance.\n  function transferFrom(\n    address _from,\n    address _to,\n    uint256 _tokenId\n  ) public {\n    require(_owns(_from, _tokenId));\n    require(_approved(_to, _tokenId));\n    require(_addressNotNull(_to));\n\n    _transfer(_from, _to, _tokenId);\n  }\n\n  /*** PRIVATE FUNCTIONS ***/\n  /// Safety check on _to address to prevent against an unexpected 0x0 default.\n  function _addressNotNull(address _to) private pure returns (bool) {\n    return _to != address(0);\n  }\n\n  /// For checking approval of transfer for address _to\n  function _approved(address _to, uint256 _tokenId) private view returns (bool) {\n    return memeIndexToApproved[_tokenId] == _to;\n  }\n\n  /// For creating Meme\n  function _createMeme(string _name, address _owner, uint256 _price) private {\n    Meme memory _meme = Meme({\n      name: _name\n    });\n    uint256 newMemeId = memes.push(_meme) - 1;\n\n    // It's probably never going to happen, 4 billion tokens are A LOT, but\n    // let's just be 100% sure we never let this happen.\n    require(newMemeId == uint256(uint32(newMemeId)));\n\n    Birth(newMemeId, _name, _owner);\n\n    memeIndexToPrice[newMemeId] = _price;\n\n    // This will assign ownership, and also emit the Transfer event as\n    // per ERC721 draft\n    _transfer(address(0), _owner, newMemeId);\n  }\n\n  /// Check for token ownership\n  function _owns(address claimant, uint256 _tokenId) private view returns (bool) {\n    return claimant == memeIndexToOwner[_tokenId];\n  }\n\n  /// For paying out balance on contract\n  function _payout(address _to) private {\n    if (_to == address(0)) {\n      ceoAddress.transfer(this.balance);\n    } else {\n      _to.transfer(this.balance);\n    }\n  }\n\n  /// @dev Assigns ownership of a specific Meme to an address.\n  function _transfer(address _from, address _to, uint256 _tokenId) private {\n    // Since the number of memes is capped to 2^32 we can't overflow this\n    ownershipTokenCount[_to]++;\n    //transfer ownership\n    memeIndexToOwner[_tokenId] = _to;\n\n    // When creating new memes _from is 0x0, but we can't account that address.\n    if (_from != address(0)) {\n      ownershipTokenCount[_from]--;\n      // clear any previously approved ownership exchange\n      delete memeIndexToApproved[_tokenId];\n    }\n\n    // Emit the transfer event.\n    Transfer(_from, _to, _tokenId);\n  }\n\n}\nlibrary SafeMath {\n\n  /**\n  * @dev Multiplies two numbers, throws on overflow.\n  */\n  function mul(uint256 a, uint256 b) internal pure returns (uint256) {\n    if (a == 0) {\n      return 0;\n    }\n    uint256 c = a * b;\n    assert(c / a == b);\n    return c;\n  }\n\n  /**\n  * @dev Integer division of two numbers, truncating the quotient.\n  */\n  function div(uint256 a, uint256 b) internal pure returns (uint256) {\n    // assert(b > 0); // Solidity automatically throws when dividing by 0\n    uint256 c = a / b;\n    // assert(a == b * c + a % b); // There is no case in which this doesn't hold\n    return c;\n  }\n\n  /**\n  * @dev Substracts two numbers, throws on overflow (i.e. if subtrahend is greater than minuend).\n  */\n  function sub(uint256 a, uint256 b) internal pure returns (uint256) {\n    assert(b <= a);\n    return a - b;\n  }\n\n  /**\n  * @dev Adds two numbers, throws on overflow.\n  */\n  function add(uint256 a, uint256 b) internal pure returns (uint256) {\n    uint256 c = a + b;\n    assert(c >= a);\n    return c;\n  }\n}",
  "sourcePath": "/Users/itru/Desktop/cryptoworkspace/cryptomeme/contracts/MemeToken.sol",
  "compiler": {
    "name": "solc",
    "version": "0.4.18+commit.9cf6e910.Emscripten.clang"
  },
  "schemaVersion": "1.0.1",
  "updatedAt": "2018-02-17T05:10:14.756Z"
}